:020000040800F2
:10000000FCFF0020E9080000CD080000CD0800003A
:10001000CD080000CD080000CD080000CD0800008C
:10002000CD080000CD080000CD080000CD0800007C
:10003000CD080000CD080000CD080000CD0800006C
:10004000CD080000CD080000CD080000CD0800005C
:10005000CD080000CD080000CD080000CD0800004C
:10006000CD080000CD080000CD080000CD0800003C
:10007000CD080000CD080000CD080000CD0800002C
:10008000CD080000CD080000CD080000CD0800001C
:10009000CD080000CD080000CD080000CD0800000C
:1000A000CD080000CD080000CD080000CD080000FC
:1000B000CD080000CD080000CD080000CD080000EC
:1000C000CD080000CD080000CD080000CD080000DC
:1000D000CD080000CD080000CD080000CD080000CC
:1000E000CD080000CD080000CD080000CD080000BC
:1000F000CD080000CD080000CD080000CD080000AC
:10010000CD080000CD080000CD080000CD0800009B
:10011000CD080000CD080000CD080000CD0800008B
:10012000CD080000CD080000CD080000CD0800007B
:1001300081B0002808BF19E006B554BF0146D0F1D0
:1001400000014FF09E0202D4521E4900FCD58031BE
:100150002CBF521C49004FEA512141EAC2510028EC
:100160004CBF41F000400846BDE8064001B0704772
:1001700081B006B54FEA40024FEA12627F3A44BFAF
:100180004FF0000011E0D2F11F0209D94FEA00211F
:1001900041F00041D14000284CBF4842084604E0ED
:1001A00000284FF0004058BF401EBDE8064001B097
:1001B0007047FFFF81B010B5904208BF2AE040EAC7
:1001C00002044FEA4404002C08BF23E0440004D199
:1001D000944201D4A41C012C1CE04FEA40044FEAD5
:1001E0001464FF2C0AD14FEA42044FEA1464FF2C36
:1001F00004D14FEAD274B4EBD0340BE0002A06D419
:10020000002802DC0024012C04E0904202E00028D7
:1002100048BF8242BDE8104001B0704781B02DE96F
:10022000FA414FEA02244FEA42052D0E04D1002C78
:1002300018BF4FF000006CE044F00044FF2D5FD089
:100240004FEA9404002A48BF64424FEA00214FEA73
:1002500040031B0E05D1002914BF4FF000001046CB
:1002600057E041F00041FF2B4BD04FEA91010028AD
:1002700048BF49425E1B41BF0F4621463C4676427D
:1002800048BF2B46192E47BF44FA06F7C9194FF04D
:10029000000803E0C6F11C0704FA07F8002904BFB0
:1002A0004FF0000035E046BF49424FF001074FF0E4
:1002B0000007A3F101034900FBD511F080040DD024
:1002C00001F0200548EA0508803128BF5B1C01F0D9
:1002D000400458EA040808BF21F480719B1CDCBF6D
:1002E0004FF0000015E0FF2B0DD221F0FF014FEA87
:1002F00041014FEA512040EAC35040EAC77008E08C
:1003000010464FEAD0774FEAC777FF204FEAC05038
:100310003843BDE8FA4101B07047FFFF81B0FAB53C
:1003200090EA02064CBF4FF000464FF000064FEA3D
:1003300000214FEA40031B0E12BF41F000414FF075
:1003400000002CE0FF2B26D04FEA02244FEA4205A2
:100350002D0E12BF44F000444FF000001FE0FF2DAF
:1003600019D05B19A1FB0454002C5CBF64005B1E18
:10037000803424BF5B1C64087E3BDCBF4FF0000070
:100380000DE0FF2B07D24FEA142030F4000040EAC2
:10039000C350304303E0FF27FF0546EA0700BDE8EE
:1003A000FA4001B07047FFFF81B082F000422DE9B2
:1003B000FA414FEA02244FEA42052D0E04D1002CE7
:1003C00018BF4FF000006CE044F00044FF2D5FD0F8
:1003D0004FEA9404002A48BF64424FEA00214FEAE2
:1003E00040031B0E05D1002914BF4FF0000010463A
:1003F00057E041F00041FF2B4BD04FEA910100281C
:1004000048BF49425E1B41BF0F4621463C467642EB
:1004100048BF2B46192E47BF44FA06F7C9194FF0BB
:10042000000803E0C6F11C0704FA07F8002904BF1E
:100430004FF0000035E046BF49424FF001074FF052
:100440000007A3F101034900FBD511F080040DD092
:1004500001F0200548EA0508803128BF5B1C01F047
:10046000400458EA040808BF21F480719B1CDCBFDB
:100470004FF0000015E0FF2B0DD221F0FF014FEAF5
:1004800041014FEA512040EAC35040EAC77008E0FA
:1004900010464FEAD0774FEAC777FF204FEAC050A7
:1004A0003843BDE8FA4101B07047FFFF81B0CDF895
:1004B00000E09300CB181B681C4682462046894604
:1004C0000FFA82F8B8F1000F10D05246FFF726FF5E
:1004D000A8F101031BB20FFA83FB9B0009EB030396
:1004E0001A68FFF79BFE0FFA8BF8EBE7DDF800E0E8
:1004F00001B0704781B0FAB590EA02064CBF4FF0E8
:1005000000464FF00006010243001B0E12BF41F0EF
:1005100000414FF000003BE0FF2B35D05FEA0224A2
:100520005FEA42055FEA156511BF44F000444FF0F1
:10053000FF4030432CE0FF2D26D05B1B00202027FE
:1005400064084908A14240EB000028BF091B7F1E38
:1005500004D0002918BF4900F4D1B84010F0004F72
:1005600004BF4000B3F1010380302CBF5B1C40008E
:100570007F33DCBF4FF000000AE0FF2B04D2400ABB
:1005800040EAC350304303E0FF27FF0556EA070067
:10059000BDE8FA4001B0704782B0CDF800E00190AC
:1005A00001A90968C90D01F0FF0109B27F3909B23B
:1005B00008B200290EDA019A4FF00000FFF7FAFDA9
:1005C00040F2000000DD012008B111481CE04FF0AE
:1005D000000019E081B2182901D9019814E00198AE
:1005E000FFF7C6FDFFF7A4FD0146019AFFF7E2FD04
:1005F00040F2000000DD012028B108464FF07E5295
:10060000FFF7D2FE00E00846DDF800E002B07047D8
:10061000000080BF012149B20C4801600C4801680C
:100620006FF4702001400A480160094801680848D9
:100630000160074801686FF47000014004480160E0
:100640000348016802480160704700BF0803424246
:100650000008014084B0CDF800E0824640F2000975
:100660004FF000005246FFF7A5FD40F2000000DD0C
:10067000012020B18AF0004140F2010900E051461A
:1006800036480A46FFF74AFE8246FFF785FF039089
:10069000019103990A465046FFF786FE01994FF0F3
:1006A0008142FFF73BFE01464FF08042FFF782FD9B
:1006B00040F2000000DD012078B108464FF0804292
:1006C000FFF772FEB9F1000F40F2000C01D140F2C9
:1006D000010C5FFA8CFC014601E05FFA89FC4FF0E7
:1006E0007E500A46FFF766FD40F2000000DA012066
:1006F00030B10A464FF08040FFF756FE024600E058
:100700000A4601921046FFF709FE019A014601913F
:100710000292042212B21249FFF7C8FE029AFFF7B2
:10072000FDFD019902460192032212B208460D49CD
:10073000FFF7BCFE019A03900191039910460A4607
:10074000FFF7D8FE0199BCF1000F03D080F0004103
:100750000846FFE7DDF800E004B0704783F9223E69
:10076000840A0000980A0000012252B20648026082
:1007700000210648016006480260064802600648FB
:100780000260064802607047F40342420074004071
:1007900004800E4244800E4200800E4240800E4291
:1007A00081B04FF000094FF0000CBDEB0A0F04DCE4
:1007B000BDEB0B0F01DBD446EA464BF8049BBBEBC9
:1007C0000A0FFAD1BCEB0A0F05DDE246D9F800B0FA
:1007D0000BF1040BF1E701B07047FFFF81B00F4848
:1007E000006840F001010D4801600D490D480160AD
:1007F0000A4801680C480140084801600748016840
:100800006FF48020014005480160064801686FF4DC
:10081000FE0001400348016001B070470010024033
:100820000000FFF804100240FFFFF6FE81B0002830
:1008300008BF0FE002B54FF09E0202D4521E4000E6
:10084000FCD580302CBF521C4000400A40EAC25008
:10085000BDE8024001B0704781B01CF8019B0BF865
:10086000019BBBEB0A0FF8D101B0704781B0CDF806
:1008700000E001460C480A46FFF79CFC40F20000ED
:1008800000DA012030B1094A0846FFF78DFDFFF775
:10089000E1FE05E006480A46FFF7C0FCFFF7DAFE76
:1008A000DDF800E001B07047DB0F4940E4CB964033
:1008B000DB0FC93F81B0CDF800E0FFF7ABFEFFF7DB
:1008C00053FFDDF800E001B07047FFFF81B0FEE7A5
:1008D00001B0704781B002490248016001B0704721
:1008E000401901000000002081B000F053F800F032
:1008F000DBF8FFF7EFFFFFF7DDFF0020ADF80000AA
:10090000BDF80000B0F5B47F3AD2BDF80000FFF7A3
:100910008DFF1C4AFFF702FDFFF7A8FF1A4AFFF7F9
:10092000FDFCFFF725FC00B2C0F5006000B281B20B
:1009300016480160BDF80000FFF778FF114AFFF785
:10094000EDFCFFF787FE104AFFF7E8FCFFF710FC0D
:1009500000B2C0F5006000B281B20D48016041F6FE
:100960003F17C0F2010700BF00BF7F1EFDD100BFCF
:1009700000BF00BFBDF80000401CADF80000BFE79D
:10098000BBE7FEE735FA8E3C00E0FF440874004008
:100990001474004082B0CDF800E0334A334B344940
:1009A0004BF68030814206D93248006840F002019F
:1009B0003048016011E045F6C050814206D92D480B
:1009C000006840F001012B48016006E029480168F9
:1009D0006FF00700014027480160FFF7FFFE26483F
:1009E0000360264802EA00012548016002F0010088
:1009F00040B119462248006800F00200002800D1EA
:100A0000F8E700E0194602F4803048B11C4800685D
:100A100000F4003000B9F9E701920A46019902E0BA
:100A200001911146019A01F0807070B1144800687C
:100A300040F080711248016011461148006800F0D2
:100A4000007000B9F9E70A46FFE70B48006800F0BC
:100A50000C01900000F00C00814200D0F5E7DDF8B9
:100A600000E002B0704700BF8100090102C45D00D0
:100A7000401901000020024004100240FFFF0F0057
:100A800000100240ECF34A48359595C717C1DC4584
:100A9000FDDB6DC372B333402B3401487F9DB045FD
:100AA000E7FFD9420000803F00B5DFF810B0DFF863
:100AB00010A0FFF775FE00BD704700BF00000020CA
:100AC00004000020FFFFFFFFFFFFFFFFFFFFFFFF0E
:00000001FF
