:020000040800F2
:10000000FCFF0020B9030000790300007903000021
:1000100079030000790300007903000079030000F0
:1000200079030000790300007903000079030000E0
:1000300079030000790300007903000079030000D0
:1000400079030000790300007903000079030000C0
:1000500079030000790300007903000079030000B0
:1000600079030000790300007903000079030000A0
:100070007903000079030000790300007903000090
:100080007903000079030000790300007903000080
:100090007903000079030000790300007903000070
:1000A0007903000079030000790300007903000060
:1000B0007903000081030000790300007903000048
:1000C0007903000079030000790300007903000040
:1000D0007903000079030000790300007903000030
:1000E0007903000079030000790300007903000020
:1000F0009D030000790300007903000079030000EC
:1001000079030000790300007903000079030000FF
:1001100079030000790300007903000079030000EF
:1001200079030000790300007903000079030000DF
:1001300081B0042806D11949096841F48032174971
:100140000A6028E0052806D11449096841F4003204
:1001500012490A601FE0062806D11049096841F4D7
:1001600080220E490A6016E00F2806D10C49096862
:1001700041F002020A490A600DE010280BD3A0F2F8
:10018000100461098A0007498B1804F01F024FF020
:1001900001019140196001B0704700BF24ED00E0FB
:1001A00010E000E000E100E081B0EFF3108C604669
:1001B00062B601B07047FFFF81B0CDF800E00122C8
:1001C0000F480260002149B20E48016040F23F2111
:1001D0000D4801604FF223410C4801600C48026059
:1001E00040F22D00FFF7A4FFFFF7DEFF01210948D1
:1001F000016004480160DDF800E001B0704700BF15
:100200008403424200800042280400402C04004045
:10021000108000428081004281B0CDF800E00121D1
:100220000F480160002252B20E48026040F23F21A6
:100230000D4801604FF223410C4801600C480260F8
:1002400040F23C00FFF774FFFFF7AEFF01210948C1
:10025000016004480160DDF800E001B0704700BFB4
:100260003403424200802642283401402C340140AD
:10027000108026428081264201210E4801600E48EE
:1002800001686FF0706001400B4801600A48006827
:1002900040F0807108480160074801686FF07040C5
:1002A0000140054801600448006840F08051024860
:1002B00001607047100342420010014081B01CF8F9
:1002C000019B0BF8019BBBEB0A0FF8D101B0704703
:1002D00081B00F48006840F001010D4801600D49F0
:1002E0000D4801600A4801680C4801400848016057
:1002F000074801686FF48020014005480160064806
:1003000001686FF4FE0001400348016001B07047CE
:10031000001002400000FFF804100240FFFFF6FE4C
:1003200081B0CDF800E0FFF7A7FFFFF745FFFFF72B
:1003300073FFDDF800E001B07047FFFF81B04FF0C0
:1003400000094FF0000CBDEB0A0F04DCBDEB0B0FF6
:1003500001DBD446EA464BF8049BBBEB0A0FFAD10B
:10036000BCEB0A0F05DDE246D9F800B00BF1040B37
:10037000F1E701B07047FFFF81B0FEE701B07047C1
:100380000021044801600448006880F040010248F0
:1003900001607047100400400C1001400021044827
:1003A00001600448006880F08001024801607047E5
:1003B000103401400C10014000F008F800F088F8FB
:1003C00000F07CF8FFF7ACFFFEE7FEE782B0CDF867
:1003D00000E0334A334B34494BF68030814206D932
:1003E0003248006840F002013048016011E045F6F3
:1003F000C050814206D92D48006840F001012B48C9
:10040000016006E0294801686FF0070001402748B5
:100410000160FFF75DFF26480360264802EA0001FD
:100420002548016002F0010040B1194622480068E9
:1004300000F00200002800D1F8E700E0194602F4BD
:10044000803048B11C48006800F4003000B9F9E77A
:1004500001920A46019902E001911146019A01F0C8
:10046000807070B11448006840F0807112480160DB
:1004700011461148006800F0007000B9F9E70A461B
:10048000FFE70B48006800F00C01900000F00C0042
:10049000814200D0F5E7DDF800E002B0704700BF10
:1004A0008100090102C55D004019010000200240E1
:1004B00004100240FFFF0F000010024081B002490B
:1004C0000248016001B0704740190100000000209F
:1004D00000B5DFF810B0DFF810A0FFF72FFF00BD68
:1004E000704700BF0000002004000020FFFFFFFF56
:00000001FF
