:020000040800F2
:10000000FC4F0020D1040000D9030000D9030000F8
:10001000D9030000D9030000D9030000D903000070
:10002000D9030000D9030000D9030000D903000060
:10003000D9030000D9030000D9030000D903000050
:10004000D9030000D9030000D9030000D903000040
:10005000D9030000D9030000D9030000D903000030
:10006000D9030000D9030000D9030000D903000020
:10007000D9030000D9030000D9030000D903000010
:10008000D9030000D9030000D9030000D903000000
:10009000D9030000D9030000D9030000D9030000F0
:1000A000D9030000D9030000D9030000D9030000E0
:1000B000D9030000D9030000D9030000D9030000D0
:1000C000D9030000D9030000D9030000D9030000C0
:1000D000D9030000D9030000D9030000D9030000B0
:1000E000D9030000D9030000D9030000D9030000A0
:1000F000D9030000D9030000D9030000D903000090
:10010000D9030000D9030000D9030000D90300007F
:10011000D9030000D9030000D9030000D90300006F
:10012000D9030000D9030000D9030000D90300005F
:10013000CA1C1378DEB206F00F06DAB202F0100223
:100140001AB18A1C12781643FFE70A8802F0FF02F0
:10015000002A35D0076840F20005082D2CD24FF058
:10016000010202FA05F30A881A409A4222D1AC0031
:100170004FF00F02A240D24307EA020306FA04F24C
:1001800043EA02021446CA1C1278282A06D100F259
:1001900014034FF00102AA401A6009E0CA1C127849
:1001A000482A05D100F210034FF00102AA401A605C
:1001B0002746FFE76D1CD0E707600D46014601E0CA
:1001C0000D4601462A88B2F1FF0F35D90A1D17687E
:1001D00040F2000008282DD200F208034FF001027F
:1001E00002FA03F32A881A409A4221D184004FF080
:1001F0000F02A240D243174006FA04F21743EA1C4A
:100200001278282A07D101F2140400F208034FF0F3
:1002100001029A402260EA1C1278482A07D101F2B2
:10022000100400F208034FF001029A402260FFE739
:10023000401CCFE70A1D17607047FFFF81B0AFF386
:100240000080401E401E00BF00BF00BF00BF00BFB7
:1002500000BF00BFF6D101B07047FFFF21B1054BD1
:100260001A6802431A6004E0C443024B1A68224031
:100270001A6070471810024081B01CF8019B0BF8FF
:10028000019BBBEB0A0FF8D101B0704700F21402DA
:100290001160704781B00F48006840F001010D48BF
:1002A00001600D490D4801600A4801680C48014091
:1002B00008480160074801686FF480200140054844
:1002C0000160064801686FF4FE00014003480160C8
:1002D00001B07047001002400000FFF80410024017
:1002E000FFFFF6FE81B04FF000094FF0000CBDEBB0
:1002F0000A0F04DCBDEB0B0F01DBD446EA464BF8DA
:10030000049BBBEB0A0FFAD1BCEB0A0F05DDE246FA
:10031000D9F800B00BF1040BF1E701B07047FFFF13
:1003200000F2080212680A400AB1012000E0002031
:100330007047FFFF82B0CDF800E001214FF00400CC
:10034000FFF78CFF40F20100ADF8040010208DF89B
:10035000070001208DF8060001A801460948FFF7B3
:10036000E7FE40F20800ADF8040048208DF80700D1
:1003700001A801460348FFF7DBFEDDF800E002B00C
:10038000704700BF0008014000F210021160704782
:1003900081B0CDF800E04FF4FA5101FB00F240F2D9
:1003A0000A01B2FBF1F1C91E0846FFF747FF00BF83
:1003B00000BF00BF00BF00BF00BFDDF800E001B01C
:1003C0007047FFFF81B002490248016001B07047E9
:1003D000401F00000000002081B0FEE701B0704720
:1003E00082B0CDF800E0334A334B34494BF68030CD
:1003F000814206D93248006840F00201304801606D
:1004000011E045F6C050814206D92D48006840F001
:1004100001012B48016006E0294801686FF00700E0
:10042000014027480160FFF735FF26480360264852
:1004300002EA00012548016002F0010040B11946BE
:100440002248006800F00200002800D1F8E700E030
:10045000194602F4803048B11C48006800F40030AE
:1004600000B9F9E701920A46019902E001911146AB
:10047000019A01F0807070B11448006840F08071FA
:100480001248016011461148006800F0007000B980
:10049000F9E70A46FFE70B48006800F00C019000FE
:1004A00000F00C00814200D0F5E7DDF800E002B07A
:1004B000704700BF8100010001000000401F0000E4
:1004C0000020024004100240FFFF0F000010024015
:1004D00081B0FFF785FF00F025F8FFF773FFFFF706
:1004E00029FF40F208010E48FFF71AFF18B140F249
:1004F0009010009002E040F28430009040F2010140
:100500000748FFF741FF0098FFF742FF40F2010163
:100510000348FFF7BBFE0098FFF73AFFE1E7FEE76D
:100520000008014000B5DFF810B0DFF810A0FFF7B9
:10053000D9FE00BD704700BF00000020040000206D
:00000001FF
