:020000040800F2
:10000000FC4F00200D040000150300001503000044
:100010001503000015030000150300001503000080
:100020001503000015030000150300001503000070
:100030001503000015030000150300001503000060
:100040001503000015030000150300001503000050
:100050001503000015030000150300001503000040
:100060001503000015030000150300001503000030
:100070001503000015030000150300001503000020
:100080001503000015030000150300001503000010
:100090001503000015030000150300001503000000
:1000A00015030000150300001503000015030000F0
:1000B00015030000150300001503000015030000E0
:1000C00015030000150300001503000015030000D0
:1000D00015030000150300001503000015030000C0
:1000E00015030000150300001503000015030000B0
:1000F00015030000150300001503000015030000A0
:10010000150300001503000015030000150300008F
:10011000150300001503000015030000150300007F
:10012000150300001503000015030000150300006F
:1001300081B0AFF30080401E401E00BF00BF00BF73
:1001400000BF00BF00BF00BFF6D101B07047FFFF86
:10015000012212B28A4012B2D3431BB202681A4083
:100160000260704781B01CF8019B0BF8019BBBEB50
:100170000A0FF8D101B0704781B00F48006840F015
:1001800001010D4801600D490D4801600A480168F0
:100190000C48014008480160074801686FF480205E
:1001A000014005480160064801686FF4FE00014007
:1001B0000348016001B07047001002400000FFF8E2
:1001C00004100240FFFFF6FE81B04FF000094FF02F
:1001D000000CBDEB0A0F04DCBDEB0B0F01DBD446BA
:1001E000EA464BF8049BBBEB0A0FFAD1BCEB0A0FB3
:1001F00005DDE246D9F800B00BF1040BF1E701B0E0
:100200007047FFFF02680A40104670470C212148E2
:1002100001604FF04431204801604FF044311F48E5
:1002200001604FF044311E4801604FF044311D48D9
:1002300001604FF044311C4801604FF044311B48CD
:1002400001604FF044311A4801604FF044311948C1
:100250000160114801686FF00F0001400E48016015
:10026000104801686FF0704001400E4801600A4874
:10027000006840F00801084801600A48006840F042
:100280008051084801600C48006840F001010A48AC
:100290000160704718100240000801400408014046
:1002A000000C0140040C014000100140041001400A
:1002B00000140140041401400C08014081B0CDF845
:1002C00000E04FF4FA5101FB00F20A21B2FBF1F118
:1002D000C91E0846FFF72CFF00BF00BF00BF00BFCC
:1002E00000BF00BFDDF800E001B07047012212B28C
:1002F00002FA01F31BB202681A4302607047FFFF63
:1003000081B002490248016001B07047401F0000FF
:100310000000002081B0FEE701B0704782B0CDF848
:1003200000E0334A334B34494BF68030814206D9E2
:100330003248006840F002013048016011E045F6A3
:10034000C050814206D92D48006840F001012B4879
:10035000016006E0294801686FF007000140274866
:100360000160FFF709FF26480360264802EA000102
:100370002548016002F0010040B11946224800689A
:1003800000F00200002800D1F8E700E0194602F46E
:10039000803048B11C48006800F4003000B9F9E72B
:1003A00001920A46019902E001911146019A01F079
:1003B000807070B11448006840F08071124801608C
:1003C00011461148006800F0007000B9F9E70A46CC
:1003D000FFE70B48006800F00C01900000F00C00F3
:1003E000814200D0F5E7DDF800E002B0704700BFC1
:1003F0008100010001000006401F000000200240B3
:1004000004100240FFFF0F0000100240FFF786FFBC
:1004100000F024F8FFF774FFFFF7F8FE01210D4804
:10042000FFF7F0FE10B1C82084B202E040F258207D
:1004300084B20F210848FFF759FFA0B2FFF73EFF33
:100440000F210548FFF784FEA0B2FFF737FFE5E76D
:10045000FEE700BF080801400C0C014000B5DFF8C2
:1004600010B0DFF810A0FFF7AFFE00BD704700BF6F
:100470000000002004000020FFFFFFFFFFFFFFFF40
:00000001FF
