:020000040800F2
:10000000FCFF0020B1030000B5020000B5020000B3
:10001000B5020000B5020000B5020000B502000004
:10002000B5020000B5020000B5020000B5020000F4
:10003000B5020000B5020000B5020000B5020000E4
:10004000B5020000B5020000B5020000B5020000D4
:10005000B5020000B5020000B5020000B5020000C4
:10006000B5020000B5020000B5020000B5020000B4
:10007000B5020000B5020000B5020000B5020000A4
:10008000B5020000B5020000B5020000B502000094
:10009000B5020000B5020000B5020000B502000084
:1000A000B5020000B5020000B5020000B502000074
:1000B000B5020000B5020000B5020000B502000064
:1000C000B5020000B5020000B5020000B502000054
:1000D000B5020000B5020000B5020000B502000044
:1000E000B5020000B5020000B5020000B502000034
:1000F000B5020000B5020000B5020000B502000024
:10010000B5020000B5020000B5020000B502000013
:10011000B5020000B5020000B5020000B502000003
:10012000B5020000B5020000B5020000B5020000F3
:10013000012149B206480160064801686FF4700069
:1001400001400448016003480168024801607047AB
:100150000803424200080140012252B21D480260D9
:1001600000211D4801601D4802601D4802601C49B5
:10017000086860B1184801686FF4601001401648C3
:1001800001601548006840F460111348016014498B
:10019000086860B1104801686FF4400001400E48E3
:1001A00001600D48006840F480010B4801600A4876
:1001B00001686FF070600140074801600648006800
:1001C00040F07F4104480160012149B205480160C7
:1001D000704700BFF40342420074004044800E4266
:1001E00048800E4240800E4281B00F48006840F0C7
:1001F00001010D4801600D490D4801600A48016880
:100200000C48014008480160074801686FF48020ED
:10021000014005480160064801686FF4FE00014096
:100220000348016001B07047001002400000FFF871
:1002300004100240FFFFF6FE81B01CF8019B0BF892
:10024000019BBBEB0A0FF8D101B0704781B04FF0B2
:1002500000094FF0000CBDEB0A0F04DCBDEB0B0FE7
:1002600001DBD446EA464BF8049BBBEB0A0FFAD1FC
:10027000BCEB0A0F05DDE246D9F800B00BF1040B28
:10028000F1E701B07047FFFF81B0CDF800E0FFF764
:100290004FFFFFF761FFDDF800E001B07047FFFF9F
:1002A00081B002490248016001B070474019010065
:1002B0000000002081B0FEE701B0704782B0CDF8A9
:1002C00000E0334A334B34494BF68030814206D943
:1002D0003248006840F002013048016011E045F604
:1002E000C050814206D92D48006840F001012B48DA
:1002F000016006E0294801686FF0070001402748C7
:100300000160FFF771FF26480360264802EA0001FA
:100310002548016002F0010040B1194622480068FA
:1003200000F00200002800D1F8E700E0194602F4CE
:10033000803048B11C48006800F4003000B9F9E78B
:1003400001920A46019902E001911146019A01F0D9
:10035000807070B11448006840F0807112480160EC
:1003600011461148006800F0007000B9F9E70A462C
:10037000FFE70B48006800F00C01900000F00C0053
:10038000814200D0F5E7DDF800E002B0704700BF21
:100390008100090102C45D004019010000200240F3
:1003A00004100240FFFF0F0000100240FFFFFFFF9C
:1003B000FFF784FF00F018F8FFF772FFFFF764FF04
:1003C000012149B20748016040F27707C0F20007F7
:1003D0007F1EFDD100BF00BF00BF00BF00BFEFE721
:1003E000FEE700BF84800E4200B5DFF810B0DFF8F2
:1003F00010A0FFF72BFF00BD704700BF00000020DA
:1004000004000020FFFFFFFFFFFFFFFFFFFFFFFFD4
:00000001FF
