:020000040800F2
:10000000FCFF0020710300005503000055030000B1
:100010005503000055030000550300005503000080
:100020005503000055030000550300005503000070
:100030005503000055030000550300005503000060
:100040005503000055030000550300005503000050
:100050005503000055030000550300005503000040
:100060005503000055030000550300005503000030
:100070005503000055030000550300005503000020
:100080005503000055030000550300005503000010
:100090005503000055030000550300005503000000
:1000A00055030000550300005503000055030000F0
:1000B00055030000550300005503000055030000E0
:1000C00055030000550300005503000055030000D0
:1000D00055030000550300005503000055030000C0
:1000E00055030000550300005503000055030000B0
:1000F00055030000550300005503000055030000A0
:10010000550300005503000055030000550300008F
:10011000550300005503000055030000550300007F
:10012000550300005503000055030000550300006F
:100130000122144802601448016813480160134802
:100140000260134801686FF00F0001401048016021
:100150000F48006840F008010D4801600D48006834
:1001600000F0FE010B4801600948006800F00F0133
:10017000074801600648006840F0B001044801608B
:10018000704700BF0003424204000140080342429E
:10019000000801400C08014001233348036000229D
:1001A00052B23248026032480260324801686FF44D
:1001B000407001402F4801602E4801682D480160C1
:1001C0002D4801686FF0030001402B4801602A4868
:1001D000006840F001012848016028480360284871
:1001E0000260254801686FF44070014022480160B8
:1001F00021480168204801602248036022480260CB
:100200001D4801686FF4E04001401B4801601A4836
:10021000006840F4E041184801601C4801686FF034
:1002200070000140194801601848006840F0500112
:1002300016480160154801686FF007000140134837
:1002400001601248006840F00601104801604EF657
:1002500060210F48016000210E48016014210E4802
:100260000160024803607047800342420000004280
:10027000100000420000004018000040000400424E
:10028000040400421004004214040042080000402C
:100290002C000040280000403800004081B01CF8CD
:1002A000019B0BF8019BBBEB0A0FF8D101B0704723
:1002B00081B00F48006840F001010D4801600D4910
:1002C0000D4801600A4801680C4801400848016077
:1002D000074801686FF48020014005480160064826
:1002E00001686FF4FE0001400348016001B07047EF
:1002F000001002400000FFF804100240FFFFF6FE6D
:1003000081B0CDF800E0FFF713FFFFF745FFDDF800
:1003100000E001B07047FFFF81B04FF000094FF0DF
:10032000000CBDEB0A0F04DCBDEB0B0F01DBD44668
:10033000EA464BF8049BBBEB0A0FFAD1BCEB0A0F61
:1003400005DDE246D9F800B00BF1040BF1E701B08E
:100350007047FFFF81B0FEE701B0704781B00249EE
:100360000248016001B07047401901000000002000
:1003700000F008F800F07EF8FFF7F0FFFFF7C0FF8D
:10038000FEE7FEE782B0CDF800E0334A334B344954
:100390004BF68030814206D93248006840F00201B5
:1003A0003048016011E045F6C050814206D92D4821
:1003B000006840F001012B48016006E0294801680F
:1003C0006FF00700014027480160FFF771FF2648E2
:1003D0000360264802EA00012548016002F001009E
:1003E00040B119462248006800F00200002800D100
:1003F000F8E700E0194602F4803048B11C48006874
:1004000000F4003000B9F9E701920A46019902E0D0
:1004100001911146019A01F0807070B11448006892
:1004200040F080711248016011461148006800F0E8
:10043000007000B9F9E70A46FFE70B48006800F0D2
:100440000C01900000F00C00814200D0F5E7DDF8CF
:1004500000E002B0704700BF8100090102C41D0026
:10046000401901000020024004100240FFFF0F006D
:100470000010024000B5DFF810B0DFF810A0FFF761
:100480004BFF00BD704700BF0000002004000020AB
:00000001FF
