:020000040800F2
:10000000FC4F002001030000C5020000C5020000F3
:10001000C5020000C5020000C5020000C5020000C4
:10002000C5020000C5020000C5020000C5020000B4
:10003000C5020000C5020000C5020000C5020000A4
:10004000C5020000C5020000C5020000C502000094
:10005000C5020000C5020000C5020000C502000084
:10006000C5020000C5020000C5020000C502000074
:10007000C5020000C5020000C5020000C502000064
:10008000C5020000C5020000C5020000C502000054
:10009000C5020000C5020000C5020000C502000044
:1000A000C5020000C5020000C5020000C502000034
:1000B000C5020000C5020000C5020000C502000024
:1000C000C5020000C5020000C5020000C502000014
:1000D000C5020000CD020000C5020000C5020000FC
:1000E000C5020000C5020000C5020000C5020000F4
:1000F000C5020000C5020000C5020000C5020000E4
:10010000C5020000C5020000C5020000C5020000D3
:10011000C5020000C5020000C5020000C5020000C3
:10012000C5020000C5020000C5020000C5020000B3
:1001300081B0042806D11949096841F48032174971
:100140000A6028E0052806D11449096841F4003204
:1001500012490A601FE0062806D11049096841F4D7
:1001600080220E490A6016E00F2806D10C49096862
:1001700041F002020A490A600DE010280BD3A0F2F8
:10018000100461098A0007498B1804F01F024FF020
:1001900001019140196001B0704700BF24ED00E0FB
:1001A00010E000E000E100E081B04FF000094FF006
:1001B000000CBDEB0A0F04DCBDEB0B0F01DBD446DA
:1001C000EA464BF8049BBBEB0A0FFAD1BCEB0A0FD3
:1001D00005DDE246D9F800B00BF1040BF1E701B000
:1001E000704700FF81B00F48006840F001010D48E2
:1001F00001600D490D4801600A4801680C48014042
:1002000008480160074801686FF4802001400548F4
:100210000160064801686FF4FE0001400348016078
:1002200001B07047001002400000FFF804100240C7
:10023000FFFFF6FE81B01CF8019B0BF8019BBBEBA6
:100240000A0FF8D101B0704703490860034A1168EA
:1002500001B9FBE7704700BF043801401C0027428A
:1002600081B0CDF800E0012252B20E4802600E4883
:10027000026040F2A0410D48016040F241310C485B
:1002800001600C4802600C4802600C4802600C4897
:10029000026040F23500FFF74BFFDDF800E001B0EF
:1002A000704700BF0803424238034242040801403D
:1002B00008380140B4012742880127428C012742B7
:1002C0009401274281B0FEE701B0704781B0CDF8BC
:1002D00000E00849086828B10748006800F0FF01FD
:1002E0000648017005480078FFF7AEFFDDF800E032
:1002F00001B070471400274204380140000000207C
:1003000000F00AF800F0CAF800F07EF800F086F875
:10031000FFF7A6FFFEE7FEE782B0CDF800E0334A24
:10032000334B34494BF68030814206D9324800685D
:1003300040F002013048016011E045F6C0508142B2
:1003400006D92D48006840F001012B48016006E005
:10035000294801686FF00700014027480160FFF756
:1003600041FF26480360264802EA00012548016053
:1003700002F0010040B119462248006800F0020076
:10038000002800D1F8E700E0194602F4803048B1B7
:100390001C48006800F4003000B9F9E701920A46F1
:1003A000019902E001911146019A01F0807070B14B
:1003B0001448006840F080711248016011461148ED
:1003C000006800F0007000B9F9E70A46FFE70B4843
:1003D000006800F00C01900000F00C00814200D099
:1003E000F5E7DDF800E002B0704700BF80000900CB
:1003F00001000000803E0000002002400410024086
:10040000FFFF0F000010024081B002490248016066
:1004100001B07047803E00000400002000B5DFF806
:1004200014B0DFF814A0DFF814C0FFF703FF00BD1D
:10043000704700BF0000002001000020E201000022
:10044000FFFFFFFFFFFFFFFFFFFFFFFFFFFFFFFFBC
:10045000FFFFFFFFFFFFFFFFFFFFFFFFFFFFFFFFAC
:10046000FFFFFFFFFFFFFFFFFFFFFFFFFFFFFFFF9C
:10047000FFFFFFFFFFFFFFFFFFFFFFFFFFFFFFFF8C
:10048000FFFFFFFFFFFFFFFFFFFFFFFFFFFFFFFF7C
:10049000FFFFFFFFFFFFFFFFFFFFFFFF00B5DFF8DC
:1004A00010B0DFF810A0FFF77FFE00BD704700BF5F
:1004B0000000002008000020FFFFFFFFFFFFFFFFFC
:00000001FF
