:020000040800F2
:10000000FC4F002059030000610200006102000063
:100010006102000061020000610200006102000054
:100020006102000061020000610200006102000044
:100030006102000061020000610200006102000034
:100040006102000061020000610200006102000024
:100050006102000061020000610200006102000014
:100060006102000061020000610200006102000004
:1000700061020000610200006102000061020000F4
:1000800061020000610200006102000061020000E4
:1000900061020000610200006102000061020000D4
:1000A00061020000610200006102000061020000C4
:1000B00061020000610200006102000061020000B4
:1000C00061020000610200006102000061020000A4
:1000D0006102000061020000610200006102000094
:1000E0006102000061020000610200006102000084
:1000F0006102000061020000610200006102000074
:100100006102000061020000610200006102000063
:100110006102000061020000610200006102000053
:100120006102000061020000610200006102000043
:1001300081B01CF8019B0BF8019BBBEB0A0FF8D1B7
:1001400001B0704781B04FF000094FF0000CBDEBDB
:100150000A0F04DCBDEB0B0F01DBD446EA464BF87B
:10016000049BBBEB0A0FFAD1BCEB0A0F05DDE2469C
:10017000D9F800B00BF1040BF1E701B07047FFFFB5
:1001800081B00F48006840F001010D4801600D4941
:100190000D4801600A4801680C48014008480160A8
:1001A000074801686FF48020014005480160064857
:1001B00001686FF4FE0001400348016001B0704720
:1001C000001002400000FFF804100240FFFFF6FE9E
:1001D00003490860034A116801B9FBE7704700BF93
:1001E000043801401C002742012252B20948026033
:1001F0000948026040F2A0410848016040F24131E4
:10020000074801600748026007480260074802602B
:10021000704700BF080342423803424204080140CD
:1002200008380140B4012742880127428C01274247
:100230000449086800B9FBE70348006800F0FF00C4
:10024000C0B27047140027420438014081B002490F
:100250000248016001B07047401F0000000000200C
:1002600081B0FEE701B0704782B0CDF800E0334ABC
:10027000334B34494BF68030814206D9324800680E
:1002800040F002013048016011E045F6C050814263
:1002900006D92D48006840F001012B48016006E0B6
:1002A000294801686FF00700014027480160FFF707
:1002B00067FF26480360264802EA000125480160DE
:1002C00002F0010040B119462248006800F0020027
:1002D000002800D1F8E700E0194602F4803048B168
:1002E0001C48006800F4003000B9F9E701920A46A2
:1002F000019902E001911146019A01F0807070B1FC
:100300001448006840F0807112480160114611489D
:10031000006800F0007000B9F9E70A46FFE70B48F3
:10032000006800F00C01900000F00C00814200D049
:10033000F5E7DDF800E002B0704700BF800009007B
:1003400001000000401F0000002002400410024095
:10035000FFFF0F0000100240FFF786FF00F00AF8D1
:10036000FFF774FFFFF740FFFFF762FFFFF730FF73
:10037000FAE7FEE700B5DFF810B0DFF810A0FFF7EE
:10038000E1FE00BD704700BF000000200400002017
:00000001FF
