:020000040800F2
:10000000FCFF0020ED040000C5030000C503000054
:10001000C5030000C5030000C5030000C5030000C0
:10002000C5030000C5030000C5030000C5030000B0
:10003000C5030000C5030000C5030000C5030000A0
:10004000C5030000C5030000C5030000C503000090
:10005000C5030000C5030000C5030000C503000080
:10006000C5030000C5030000C5030000C503000070
:10007000C5030000C5030000C5030000C503000060
:10008000C5030000C5030000C5030000C503000050
:10009000C5030000C5030000C5030000C503000040
:1000A000C5030000C5030000C5030000C503000030
:1000B000CD030000C5030000C5030000C503000018
:1000C000C5030000C5030000C5030000C503000010
:1000D000C5030000C5030000C5030000C503000000
:1000E000C5030000C5030000C5030000C5030000F0
:1000F000C5030000C5030000C5030000C5030000E0
:10010000C5030000C5030000C5030000C5030000CF
:10011000C5030000C5030000C5030000C5030000BF
:10012000C5030000C5030000C5030000C5030000AF
:1001300081B0042806D11949096841F48032174971
:100140000A6028E0052806D11449096841F4003204
:1001500012490A601FE0062806D11049096841F4D7
:1001600080220E490A6016E00F2806D10C49096862
:1001700041F002020A490A600DE010280BD3A0F2F8
:10018000100461098A0007498B1804F01F024FF020
:1001900001019140196001B0704700BF24ED00E0FB
:1001A00010E000E000E100E081B0EFF3108C604669
:1001B00062B601B07047FFFF81B0CDF800E00123C7
:1001C00029480360002252B22848026002212848D0
:1001D0000160002127480160274802602748016824
:1001E0006FF44070014025480160244801682348AD
:1001F0000160234801686FF003000140204801605E
:100200001F48006840F001011D4801601D4803605F
:100210001D4802601D4801686FF0700001401B48D6
:1002200001601A48006840F0400118480160174812
:1002300001686FF00700014014480160134800682E
:1002400040F00701114801601148036040F22C00A2
:10025000FFF76EFFFFF7A8FF012104480160DDF8FA
:1002600000E001B0704700BF80034242000000423E
:100270002C00004028000040100000420000004018
:10028000180000400004004204040042080000403E
:100290008001004201221648026016480168154894
:1002A000016015480260154801686FF00F000140B9
:1002B000124801601148006840F004010F480160D5
:1002C00001210F4801600F4801686FF07060014024
:1002D0000C4801600B48006840F04071094801601B
:1002E0000948006840F0400107480160704700BFBE
:1002F000000342420400014008034242000801405A
:1003000010034242001001401010014081B01CF85F
:10031000019B0BF8019BBBEB0A0FF8D101B07047B2
:1003200081B00F48006840F001010D4801600D499F
:100330000D4801600A4801680C4801400848016006
:10034000074801686FF480200140054801600648B5
:1003500001686FF4FE0001400348016001B070477E
:10036000001002400000FFF804100240FFFFF6FEFC
:1003700081B0CDF800E0FFF78DFFFFF71DFFDDF83E
:1003800000E001B07047FFFF81B04FF000094FF06F
:10039000000CBDEB0A0F04DCBDEB0B0F01DBD446F8
:1003A000EA464BF8049BBBEB0A0FFAD1BCEB0A0FF1
:1003B00005DDE246D9F800B00BF1040BF1E701B01E
:1003C0007047FFFF81B0FEE701B07047002104488D
:1003D00001600448006880F04001024801607047F5
:1003E000100000400C10014081B002490248016039
:1003F00001B07047401901000000002082B0CDF824
:1004000000E0334A334B34494BF68030814206D901
:100410003248006840F002013048016011E045F6C2
:10042000C050814206D92D48006840F001012B4898
:10043000016006E0294801686FF007000140274885
:100440000160FFF76DFF26480360264802EA0001BD
:100450002548016002F0010040B1194622480068B9
:1004600000F00200002800D1F8E700E0194602F48D
:10047000803048B11C48006800F4003000B9F9E74A
:1004800001920A46019902E001911146019A01F098
:10049000807070B11448006840F0807112480160AB
:1004A00011461148006800F0007000B9F9E70A46EB
:1004B000FFE70B48006800F00C01900000F00C0012
:1004C000814200D0F5E7DDF800E002B0704700BFE0
:1004D0008100090102C41D004019010000200240F2
:1004E00004100240FFFF0F0000100240FFF786FFDC
:1004F00000F006F8FFF778FFFFF73AFFFEE7FEE7A8
:1005000000B5DFF810B0DFF810A0FFF73DFF00BD29
:10051000704700BF0000002004000020FFFFFFFF25
:00000001FF
