:020000040800F2
:1000000000C00020251E0008B51D0008BD1D000809
:10001000BF1D0008C11D0008C31D0008000000002E
:10002000000000000000000000000000C51D0008E6
:10003000C71D000800000000C91D0008CB1D0008F6
:100040006D1E00086D1E00086D1E00086D1E000864
:100050006D1E0008D71D00086D1E00086D1E0008EB
:100060006D1E00086D1E00086D1E00086D1E000844
:100070006D1E00086D1E00086D1E00086D1E000834
:100080006D1E00086D1E00086D1E00086D1E000824
:100090006D1E00086D1E00086D1E00086D1E000814
:1000A0006D1E00086D1E00086D1E00086D1E000804
:1000B0006D1E00086D1E00086D1E00086D1E0008F4
:1000C0006D1E00086D1E00086D1E00086D1E0008E4
:1000D0006D1E00086D1E00086D1E00086D1E0008D4
:1000E0006D1E00086D1E00086D1E00086D1E0008C4
:1000F0006D1E00086D1E00086D1E00086D1E0008B4
:100100006D1E00086D1E00086D1E00086D1E0008A3
:100110006D1E00086D1E00086D1E00086D1E000893
:100120006D1E00086D1E00086D1E00086D1E000883
:1001300000000000000000000000000000000000BF
:1001400000000000000000000000000000000000AF
:10015000000000000000000000000000000000009F
:10016000000000000000000000000000000000008F
:10017000000000000000000000000000000000007F
:10018000000000000000000000000000000000006F
:10019000000000000000000000000000000000005F
:1001A000000000000000000000000000000000004F
:1001B000000000000000000000000000000000003F
:1001C000000000000000000000000000000000002F
:1001D000000000000000000000000000000000001F
:0401E0005FF8E0F1F3
:1001E40010B5054C237833B9044B13B10448AFF36D
:1001F40000800123237010BD0C00002000000000CB
:10020400B81E000808B5034B1BB103490348AFF3FC
:10021400008008BD0000000010000020B81E000887
:1002240010B504460E4B18784FF47A73B3FBF0F311
:100234000C4A1068B0FBF3F000F0A0F868B90F2C7A
:1002440001D901200AE0002221464FF0FF3000F0DE
:1002540055F8034B5C60002000E0012010BD00BF96
:10026400000000200800002008B5074A136843F086
:1002740010031360032000F02FF80020FFF7D0FFD5
:1002840001F03EFD002008BD00200240034A116831
:10029400034B1B780B441360704700BF28000020F9
:1002A40000000020014B1868704700BF28000020A0
:1002B40038B50446FFF7F6FF0546B4F1FF3F02D018
:1002C400044B1B781C44FFF7EDFF401BA042FAD3FC
:1002D40038BD00BF00000020074AD36823F4E06360
:1002E4001B041B0C000200F4E060184340F0BF60E4
:1002F40040F40030D060704700ED00E030B4174B9C
:10030400DB68C3F30223C3F10704042C28BF0424CD
:100314001D1D062D18D9033B4FF0FF3505FA04F4D3
:1003240021EA0401994005FA03F322EA030319437D
:1003340000280BDB0901C9B200F1604000F56140FF
:1003440080F8001330BC70470023E5E700F00F008D
:100354000901C9B2024B1954F4E700BF00ED00E0F3
:1003640014ED00E000F01F02400901239340024A0B
:1003740042F82030704700BF00E100E00138B0F1DE
:10038400807F0AD2064B5860064AF02182F8231077
:100394000020986007221A6070470120704700BF50
:1003A40010E000E000ED00E0042805D0054A1368E1
:1003B40023F0040313607047024A136843F00403F4
:1003C4001360704710E000E0704708B5FFF7FCFFCA
:1003D40008BD0000F0B482B000263546ABE0002C26
:1003E40063D0012C00D1CE68FF2B72D88446FF2B3A
:1003F40072D8AC00DCF800200F27A74022EA0702DD
:1004040006FA04F42243CCF800204A6812F0805F14
:1004140000F09080654A946944F001049461926903
:1004240002F001020192019AAC08A71C604A52F83A
:1004340027C005F0030297000F22BA402CEA020CF1
:100444005C4A90424ED002F58062904200F08B806C
:1004540002F58062904200F0888002F5806290424A
:1004640000F0858002F58062904200F0828002F5FF
:100474008062904234D0062235E04F4FBC4214D003
:100484000BD94E4FBC4210D007F58037BC420CD07C
:10049400A7F58017BC42A7D107E0A7F58017BC4297
:1004A40003D007F58037BC429ED18C687CB1012C07
:1004B40008D04261082697E7CE68083694E7CE68EC
:1004C4000C3691E7026108268EE700268CE70426A5
:1004D4008AE700F1040C8AE7A5F10804A40089E77F
:1004E400052200E00022BA4042EA0C020234304FF6
:1004F40047F824204A6812F4803F3CD0304C2268EC
:100504001A4322604A6812F4003F3AD02C4C6268C5
:100514001A4362604A6812F4801F38D0284CA268DB
:100524001A43A2604A6812F4001F36D0244CE268D1
:100534001343E36001350F2D35D80122AA400B681F
:1005440013409A42F6D14C68122CB8D095D8022C9C
:10055400B2D07FF644AF032CB7D0112C7FF444AF54
:10056400CE68043640E70122BDE70222BBE703223E
:10057400B9E70422B7E7124C226822EA0302226098
:10058400C0E70F4C626822EA03026260C2E70C4CC7
:10059400A26822EA0302A260C4E7094CE26822EAE4
:1005A4000303E360C6E702B0F0BC704700100240EA
:1005B400000001400008014000002110000031103B
:1005C400000401408368194201D1002070470120D2
:1005D400704712B909040161704701617047000056
:1005E400014B01221A60704720000E4282B0084B72
:1005F4001B68084AA2FB03235B0A00FB03F001907B
:1006040000BF019B5A1E0192002BF9D102B0704722
:1006140008000020D34D621070B582B00446036810
:1006240013F0010F2CD0AB4B5B6803F00C03042BCD
:100634001DD0A84B5B6803F00C03082B12D0636831
:10064400B3F5803F41D0002B55D103F1804303F52E
:1006540004331A6822F480321A601A6822F4802261
:100664001A6037E09B4B5B6813F4803FE7D0994BEB
:100674001B6813F4003F03D06368002B00F0AE81C5
:10068400236813F0020F76D0924B5B6813F00C0FC3
:100694005FD0904B5B6803F00C03082B54D02369A4
:1006A400002B00F08A808C4B01221A60FFF7FAFDC0
:1006B4000546884B1B6813F0020F75D1FFF7F2FD56
:1006C400401B0228F5D903208BE1824A136843F4C6
:1006D40080331360636843B3FFF7E4FD05467D4B45
:1006E4001B6813F4003FCBD1FFF7DCFD401B6428EB
:1006F400F5D9032075E1B3F5A02F09D0754B1A681D
:1007040022F480321A601A6822F480221A60E1E727
:1007140003F18043A3F53C331A6842F480221A6043
:100724001A6842F480321A60D4E7FFF7BBFD05462D
:10073400684B1B6813F4003FA2D0FFF7B3FD401BC6
:100744006428F5D903204CE1624B5B6813F4803FC5
:10075400A5D1604B1B6813F0020F04D02369012B51
:1007640001D001203DE15B4A136823F0F80361697D
:1007740043EAC1031360236813F0080F32D0A3695E
:10078400002B5BD0554B01221A60FFF78BFD054609
:10079400504B5B6A13F0020F21D1FFF783FD401B1E
:1007A4000228F5D903201CE14A4A136823F0F80310
:1007B400616943EAC1031360DDE7474B00221A6015
:1007C400FFF770FD0546434B1B6813F0020FD2D0B0
:1007D400FFF768FD401B0228F5D9032001E1012041
:1007E400FFF704FF236813F0040F00F09780394BE0
:1007F400DB6913F0805F33D1364BDA6942F0805203
:10080400DA61DB6903F080530193019B0125344BCA
:100814001B6813F4807F25D0E368012B36D0002BAE
:100824004CD103F1804303F504331A6A22F0010228
:100834001A621A6A22F004021A622CE0274B002280
:100844001A60FFF72FFD0546224B5B6A13F0020F77
:10085400C8D0FFF727FD401B0228F5D90320C0E0CC
:100864000025D4E71E4A136843F480731360FFF72E
:1008740019FD06461A4B1B6813F4807FCCD1FFF791
:1008840011FD801B6428F5D90320AAE0114A136ADC
:1008940043F001031362E36873B3FFF703FD0646F5
:1008A4000C4B1B6A13F0020F37D1FFF7FBFC801BC4
:1008B40041F288339842F3D9032092E0052B11D0FA
:1008C400044B1A6A22F001021A621A6A22F0040224
:1008D4001A62E0E7001002400000424280044242F3
:1008E40000700040414B1A6A42F004021A621A6A0C
:1008F40042F001021A62CEE7FFF7D4FC06463B4BF6
:100904001B6A13F0020F08D0FFF7CCFC801B41F2E6
:1009140088339842F3D9032063E0E5B9E369002BF7
:100924005ED0324A526802F00C02082A5BD0022BD5
:1009340017D02F4B00221A60FFF7B4FC04462B4B50
:100944001B6813F0007F47D0FFF7ACFC001B0228A4
:10095400F5D9032045E0254AD36923F08053D361B8
:10096400DCE7234B00221A60FFF79CFC05461F4B73
:100974001B6813F0007F06D0FFF794FC401B02288D
:10098400F5D903202DE0236AB3F5803F1AD0174927
:100994004B6823F47413226A606A024313434B6066
:1009A400134B01221A60FFF77DFC04460F4B1B68B2
:1009B40013F0007F0ED1FFF775FC001B0228F5D958
:1009C40003200EE0094A536823F40033A1680B4363
:1009D4005360DCE7002004E0002002E0012000E096
:1009E400002002B070BD0120FBE700BF00100240F0
:1009F40060004242014B01221A6070474C0042429F
:100A040010B487B0164C94E80F000DF1180C0CE9E3
:100A14000F00238AADF80430124B5B6803F00C021C
:100A2400082A1AD1C3F38342624412F8102C13F437
:100A3400803F05D10C4800FB02F007B010BC7047A2
:100A4400084B5B68C3F34043634413F8143C074802
:100A540000FB02F0B0FBF3F0EFE70448EDE700BF62
:100A6400D01E00080010024000093D0000127A0068
:100A7400594B1B6803F007038B420CD2564A136888
:100A840023F007030B431360136803F007038B423F
:100A940001D00120704770B5036813F0020F06D02F
:100AA4004E4A536823F0F0038468234353600C4692
:100AB4000546036813F0010F52D04368012B23D07D
:100AC400022B28D0454A126812F0020F00F08280EF
:100AD40042494A6822F0030213434B60FFF7E2FBEA
:100AE40006466B68012B1DD0022B2AD03B4B5B685A
:100AF40013F00C0F34D0FFF7D5FB801B41F2883381
:100B04009842F3D9032064E0344A126812F4003F97
:100B1400DED101205DE0314A126812F0007FD7D1A6
:100B2400012056E02D4B5B6803F00C03042B17D017
:100B3400FFF7B8FB801B41F288339842F2D90320B7
:100B440047E0264B5B6803F00C03082B08D0FFF743
:100B5400A9FB801B41F288339842F2D9032038E084
:100B64001D4B1B6803F00703A3420CD91A4A1368F0
:100B740023F0070323431360136803F00703A3421E
:100B840001D0012025E02B6813F0040F06D0134A8E
:100B9400536823F4E063E9680B4353602B6813F054
:100BA400080F07D00D4A536823F46053296943EAB8
:100BB400C1035360FFF724FF084B5B68C3F30313BF
:100BC400074AD35CD840074B18600020FFF728FB86
:100BD400002070BD0120FCE700200240001002400C
:100BE400041F000808000020014B1868704700BF6C
:100BF4000800002008B5FFF7F7FF044B5B68C3F358
:100C0400C223034AD35CD84008BD00BF0010024091
:100C1400141F00087047000008B5064B9B6813F0CA
:100C2400800F00D108BDFFF7F5FF034B80221A7037
:100C3400F8E700BF001002400A10024070B582B00D
:100C44000446036813F0010F34D03E4BDB6913F004
:100C5400805F48D13B4BDA6942F08052DA61DB694C
:100C640003F080530193019B0125374B1B6813F458
:100C7400807F3AD0334B1B6A13F4407311D06268FF
:100C840002F440729A420CD02E4A136A23F4407044
:100C94002E4901260E6000260E60106213F0010F2B
:100CA40037D1284A136A23F4407361680B431362F3
:100CB400002D3FD1236813F0020F06D0214A536858
:100CC40023F44043A1680B435360236813F0100FCF
:100CD40035D01C4A536823F4800361690B43536085
:100CE400002002B070BD0025BFE7174A136843F423
:100CF40080731360FFF7D6FA0646134B1B6813F490
:100D0400807FB7D1FFF7CEFA801B6428F5D9032082
:100D1400E7E7FFF7C7FA06460A4B1B6A13F0020F10
:100D2400BFD1FFF7BFFA801B41F288339842F3D951
:100D34000320D6E7D36923F08053D361BAE70020B8
:100D4400CFE700BF00100240007000404004424260
:100D540030B587B005463F4C94E80F000DF1180CF0
:100D64000CE90F00238AADF80430681E0F2866D8FA
:100D7400DFE800F0395A6532656565366565656595
:100D840065656508344B5A681B6813F0807F58D03A
:100D9400C2F3834306A90B4413F8100C12F4803FEA
:100DA40016D02D4B5B68C3F340430B4413F8142C4B
:100DB4002A4BB3FBF2F300FB03F0274B5B6813F4FD
:100DC400800F0BD14000264BA3FB0030400805E008
:100DD400244B03FB00F0F0E7FFF712FE07B030BD31
:100DE400FFF70EFEFAE71C4B1B6A40F202321A4070
:100DF400B2F5817F27D003F44073B3F5007F04D0AC
:100E0400B3F5407F09D00020E8E7134A526A12F094
:100E1400020FF5D049F64040E0E70F4B1B6813F48E
:100E2400003F13D10020D9E7FFF7E4FE0A4B5B68CB
:100E3400C3F3813301335B00B0FBF3F0CEE7002052
:100E4400CCE70020CAE74FF40040C7E74FF2244044
:100E5400C4E700BFE41E00080010024000127A003C
:100E6400ABAAAAAA00093D0030B402689469A5B2ED
:100E7400D369916988B2854205D0D06980B240EACD
:100E8400014030BC704798B240EA0440F9E7036877
:100E9400186A5B6A9BB243EA00407047002302E091
:100EA40001330A38C0B20928FAD81B01DBB218434F
:100EB4007047030903EB83035A0000F00F0010444A
:100EC400C0B2704710F0030F16D10D4BA3FB0023E3
:100ED4005B09642202FB13039BB27BB9084BA3FB9F
:100EE4000023DB094FF4C87202FB130080B208B17F
:100EF4000020704701207047002070470120704790
:100F04001F85EB5110B400F5FA64022920D901EBD6
:100F14004103C1EBC3011F4BA3FB011302EB5303BA
:100F2400234403EB94031C4AA2FB0424A3EB5413B1
:100F340003EBD41302331948A0FB03201A1A00EB65
:100F440052008008C0EBC000181AC0B210BC704731
:100F540001EB4103C1EBC3010E4BA3FB011302EBF5
:100F64005303234400F2CF7003EB90030A4AA2FB1D
:100F74000020A3EB501303EBD01304330748A0FB6A
:100F840003201A1A00EB52008008C0EBC000181AA4
:100F9400DBE700BF398EE3381F85EB5125499224E6
:100FA4002DE9F8430746884690F80F90447B857BEB
:100FB400002603E01E2D1FD80135013646453DD2DB
:100FC400012CF7D0032CF5D0052CF3D0072CF1D04D
:100FD400082CEFD00A2CEDD00C2CEBD0042C15D01F
:100FE400062C13D0092C11D00B2C0FD0022CE4D1D9
:100FF4001B2D12D80135E0E70C2C02D00134012559
:10100400DBE709F1010901252C46D6E71D2D01D89E
:101014000135D2E701340125CFE71C2D04D01D2D65
:10102400CBD101340125C8E71FFA89F0FFF74AFF45
:1010340008B10135C1E701340125BEE787F80F90F7
:10104400E1B27973EAB2BA734846FFF75BFF3873CB
:10105400BDE8F88338B50446FFF724F9054623684C
:101064005A6812F0200F07D1FFF71CF9401BB0F5A6
:101074007A7FF4D9032004E05A6842F010025A60DF
:10108400002038BD38B504460268536823F01003C5
:101094005360FFF707F9054623685B6813F0200FD8
:1010A40007D1FFF7FFF8401BB0F57A7FF4D903208E
:1010B40000E0002038BD38B505460C46FFF7CAFFEE
:1010C40010B10123184638BD2B68220C9A612B6895
:1010D400A4B2DC612846FFF7D5FF03460028F1D00F
:1010E4000123EFE738B505460C46FFF7B3FF10B10F
:1010F4000123184638BD2B68220C1A622B68A4B24F
:101104005C622846FFF7BEFF03460028F1D00123A6
:10111400EFE770B5002857D00446002956D0037C69
:10112400012B55D00E460123037402234374BAB92C
:101134000D784B78C3EB03139A004FF4616303FB00
:1011440005258B781D4429462046FFF7B4FF064643
:10115400C8B104236374002323740126304670BD90
:101164000878FFF7A6FE4FF4616505FB00F570787B
:10117400FFF79FFEC0EB001083001D44B078FFF71B
:1011840098FE0544DFE72268536823F005035360A3
:101194002046FFF77CFEB0F1FF3F01D0854204D822
:1011A4000123637400232374D8E700F5A83101F503
:1011B400C0712046FFF796FF0028F1D00423637422
:1011C400002323740126C9E70126C7E70126C5E7E2
:1011D4000226C3E7002875D02DE9F047054600290B
:1011E40072D003685B6813F0040F02D00120BDE8DD
:1011F400F08716460C46FFF737FE0746364AA2FB31
:101204000032D20A4FF4616000FB1270334BA3FB2F
:1012140000135B096370C3EB03139900411AA170B7
:10122400172A10D82270002E54D02078FFF736FEEB
:1012340020706078FFF732FE6070A078FFF72EFE12
:10124400A0700020D3E7264BA3FB07384FEA1848C9
:10125400244BA3FB02131B0903EB4303D900531ACA
:1012640023702846FFF713FE8246B0F1FF3F03D0F8
:1012740087421CD2A0EB070A194BA3FB07394FEA9C
:101284001949194B03FB197949462846FFF713FFFF
:10129400E0B9BAF1FF3F0DD00AEB09012846FFF788
:1012A40021FFA8B941462846FFF77AFEBBE74FF075
:1012B400FF3AE1E751462846FFF714FF0028F1D032
:1012C400012094E701207047012090E701208EE778
:1012D40001208CE700208AE7C5B3A2918988888819
:1012E40007452EC2ABAAAAAA8051010000285DD0EE
:1012F40038B5044600295BD0037C012B5AD00D4637
:101304000123037402234374D2B9CB78C3734B789B
:1013140043738B788373A27B617BE07BFFF7F2FDE1
:10132400207328702046FFF79FFD234BA3FB002367
:10133400B3F5484F11D2012363740020207438BDE3
:10134400C878FFF7B6FDE0736878FFF7B2FD607305
:10135400A878FFF7AEFDA073DDE7184DA5FB0035B7
:101364002D0C174B03FB150529462046FFF7A3FE5A
:1013740028B104236374002323740120DFE720468B
:10138400FFF785FDB0F1FF3FD5D08542D3D900F5F5
:10139400A83101F5C0712046FFF7A4FE0028CAD089
:1013A40004236374002323740120C8E701207047D9
:1013B4000120C4E70220C2E7C5B3A29107452EC2AB
:1013C400805101002DE9F04182B00023ADF80430D2
:1013D4008DF8063000B3054601B317460C461A468D
:1013E40001A9FFF7F7FE0646E8B92B7B2370E87BDB
:1013F400E07095F80D8084F80180AD7BA57077B11D
:10140400FFF74CFDE0704046FFF748FD607028464A
:10141400FFF744FDA07002E0012600E001263046FB
:1014240002B0BDE8F0810126F9E7C0B138B5044641
:101434000268536823F008035360FEF733FF054640
:1014440023685B6813F0080F07D1FEF72BFF401BDE
:10145400B0F57A7FF4D9032000E0002038BD0120E4
:101464007047000000285AD010B50446437C53B19D
:10147400022363742046FFF7D8FF40B1042363744A
:101484000123184610BD037400F01AFCF0E720464F
:10149400FFF7E0FD002830D12268536823F00703EA
:1014A4005360A36823B11F4A136B23F00103136332
:1014B4001C4AD36A23F46073A1680B43D362626845
:1014C400B2F1FF3F1DD021688B6823F00F0343EA7C
:1014D40012438B602168CB681B0C1B0492B213432C
:1014E400CB602046FFF7CEFD0346A0B90022E2738D
:1014F40001226273A2736274C3E704236374012339
:10150400BFE70120FFF724FC08B1421EDBE70423F8
:1015140063740123B5E7042363740123B1E7012352
:1015240018467047006C004010B50A4C0122802117
:101534002046FFF74EF8012240212046FFF749F8E4
:101544000420FEF7B5FE002280212046FFF741F873
:1015540010BD00BF000C014010B50F4C002240210B
:101564002046FFF736F80420FEF7A2FE0022802171
:101574002046FFF72EF80420FEF79AFE01224021B0
:101584002046FFF726F80420FEF792FE0122802170
:101594002046FFF71EF810BD000C01402DE9F04174
:1015A40084B0054608240FE0002280213148FFF76B
:1015B40010F8012240212F48FFF70BF80420FEF712
:1015C40077FE6D08013CE4B284B100224021294831
:1015D400FEF7FFFF0420FEF76BFE15F0010FE3D0CA
:1015E400012280212348FEF7F4FFE2E7214C002288
:1015F40040212046FEF7EDFF802500950027019746
:101604004FF00108CDF8088069462046FEF7E2FE57
:101614000420FEF74DFE29462046FEF7D3FF06467A
:101624000095CDF80480029703230393694620466E
:10163400FEF7D0FEBEB90420FEF73AFE0D4C01229F
:1016440040212046FEF7C5FF0420FEF731FE0022AC
:1016540040212046FEF7BDFF0420FEF729FE304658
:1016640004B0BDE8F0813A4629462046FEF7B1FFB2
:10167400E1E700BF000C014010B50446FFF754FF3A
:101684002046FFF78BFFFFF767FF10BD38B5044610
:101694000D46012810D04420FFF7EEFFFFF744FF6A
:1016A40004F0030040F0C000FFF778FF2846FFF77E
:1016B40075FFFFF751FF38BD012A02D001F07F0505
:1016C400E9E741F08005E6E7032000280BDB10B5CD
:1016D400C4B2002211462046FFF7D8FF601E40B274
:1016E4000028F5DA10BD704708B58F20FFF7C4FF56
:1016F400FFF7EAFF08BD00002DE9F04188B0324B46
:101704009A6942F010029A619A6902F010020092FA
:10171400009A9A6942F020029A619A6902F02002C2
:101724000192019A9A6942F004029A619A6902F05C
:1017340004020292029A9A6942F008029A619B6931
:1017440003F008030393039B204D0022C021284685
:10175400FEF73FFF43F6FF7304930324059404A9A3
:101764001B48FEF737FE40F20F230493002605962C
:1017740001270697DFF8608004A94046FEF72AFE99
:101784004FF6F0530493059404A94046FEF722FE55
:101794004FF63F730493059404A92846FEF71AFEF6
:1017A40004230493059404A90A48FEF713FEC023F6
:1017B400049305970696079404A92846FEF70AFEA3
:1017C40008B0BDE8F08100BF00100240000C0140E9
:1017D40000100140001401400008014070B50446A7
:1017E4000D46164608210A48FEF7ECFE20B90134DE
:1017F40064B2AC4200DD344601210548FEF7E2FE46
:1018040020B9013C64B2A64200DD2C46E0B270BDB2
:1018140000080140FEE7000000B597B005230C93D3
:101824004FF480330D9300220E9201220F921092F6
:101834000222139214934FF4C01315930CA8FEF7CD
:10184400EBFE60BB0F230793022108910023099349
:101854004FF480620A920B9307A8FFF709F918BBAB
:10186400012301934FF48073029301A8FFF7E6F973
:10187400F8B9FFF7BFF8FFF7B7F9104BA3FB003037
:101884008009FEF77BFD0420FEF78EFD0022114641
:101894004FF0FF30FEF732FD17B05DF804FB4FF454
:1018A400B5710748FFF7B6FF4FF4BC710448FFF762
:1018B400B1FF40F27F110248FFF7ACFFD34D621035
:1018C4001C1F00082DE9F04383B0FEF7CDFCFFF7A1
:1018D400A3FFFFF711FF00F0ADF9FFF705FFD14CAF
:1018E400002201A92046FFF775FC00226946204624
:1018F400FFF768FD4FF0000847464446464603E1BB
:10190400012401E12820FEF7D3FC0221C648FEF79A
:1019140059FE0028F9D0012E06D00124FFF7D4FE89
:1019240037460126B046F6E00134E4B23E46F5E718
:101934000A20FEF7BDFC002E40F0F4800134E4B22E
:10194400F0E04FF40071B848FEF73CFE0028F8D0F0
:1019540087F00107FFB2EDE0002211461046FFF7C1
:1019640095FE012200211046FFF790FE0022172168
:101974009DF90400FFF732FF8DF80400A94D002201
:1019840001A92846FFF7C5FB002269462846FFF750
:10199400ADFC631E042BB3D8DFE813F07D007D009B
:1019A400DE00DE001801002211460220FFF76EFE61
:1019B400002211460320FFF769FE00223B219DF916
:1019C4000500FFF70BFF8DF80500D7E7002211464D
:1019D4001046FFF75BFE002211460120FFF756FE7A
:1019E40001221F219DF90200FFF7F8FE8DF8020085
:1019F400C4E7002211460220FFF748FE00221146E8
:101A04000320FFF743FE01220C219DF90100FFF79B
:101A1400E5FE8DF80100B1E7844D0022A978104657
:101A2400FFF734FE002229780120FFF72FFE002261
:101A340011460220FFF72AFE002211460320FFF779
:101A440025FE002263219DF90300FFF7C7FE8DF8F0
:101A5400030093E7B046002634468FE7714D002219
:101A640001A92846FFF7B6FB002269462846FFF77E
:101A7400A9FC88F001085FFA88F8012F04D001243A
:101A84006420FEF715FC84E70134E4B24FF41670C9
:101A9400FEF70EFCF4E79DF80430654DA5FB032327
:101AA400DB08DFF88891002219F803101046FFF7CD
:101AB400EDFD9DF80420A5FB0213DB0803EB830373
:101AC4005900521AD3B2424619F803100120FFF705
:101AD400DDFD9DF80530A5FB0323DB08002219F882
:101AE40003100220FFF7D2FD9DF80530A5FB032566
:101AF400ED0805EB85056A009B1ADBB2002219F894
:101B040003100320FFF7C2FD02214748FEF75AFDE8
:101B140000283FF4F7AE04214348FEF753FD0028A4
:101B24003FF406AF4FF400713F48FEF74BFD002829
:101B34003FF407AF012E91D1631E042B8AD801A272
:101B440052F823F05D190008AB190008D1190008F8
:101B5400F71900081D1A00089DF80230344DA5FB42
:101B64000323DB08DFF8C490002219F803101046A1
:101B7400FFF78CFD9DF80220A5FB0213DB0803EBA5
:101B840083035900521AD3B2002219F8031001201A
:101B9400FFF77CFD9DF80130A5FB0323DB08002241
:101BA40019F803100220FFF771FD9DF80130A5FB21
:101BB4000325ED0805EB85056A009B1ADBB20022BC
:101BC40019F803100320FFF761FD9DE7DFF85C902F
:101BD400002299F802101046FFF758FD002299F8E8
:101BE40000100120FFF752FD9DF80330104DA5FBB6
:101BF4000323DB08002219F803100220FFF746FD37
:101C04009DF80330A5FB0325ED0805EB85056A0067
:101C14009B1ADBB2002219F803100320FFF736FDEC
:101C240072E700BF2C00002000080140F81E0008E5
:101C3400CDCCCCCC00B583B01E481F4B03604FF015
:101C4400FF33436000238360FFF70CFC10BB0A23BF
:101C54008DF804308DF805301E238DF806300022EF
:101C640001A91448FFF755FAC8B901238DF80030CB
:101C740011238DF801300C238DF8023012238DF8D6
:101C84000330002269460B48FFF730FB60B903B00C
:101C94005DF804FB3E210948FFF7BCFDD7E7492165
:101CA4000648FFF7B7FDE0E753210448FFF7B2FD0C
:101CB400EDE700BF2C000020002800402C1F000886
:101CC40002680C4B9A4200D0704700B583B0FEF70F
:101CD40087FC094BDA6942F00062DA61DB6903F0E0
:101CE40000630193019B054B01221A6003B05DF868
:101CF40004FB00BF00280040001002403C044242A4
:101D040000B583B0284B9A6942F001029A619A693E
:101D140002F001020092009ADA6942F08052DA611C
:101D2400DB6903F080530193019B0320FEF7D4FA8F
:101D3400002211466FF00B00FEF7E0FA0022114674
:101D44006FF00A00FEF7DAFA002211466FF009007C
:101D5400FEF7D4FA002211466FF00400FEF7CEFA23
:101D6400002211466FF00300FEF7C8FA0022114664
:101D74006FF00100FEF7C2FA002211464FF0FF3067
:101D8400FEF7BCFA002211460520FEF7B7FA05203B
:101D9400FEF7E8FA054A536823F0E06343F08063F2
:101DA400536003B05DF804FB0010024000000140E2
:101DB40008B5FEF731FF08BDFEE7FEE7FEE7FEE7E4
:101DC40070477047704708B5FEF760FAFEF7FDFAF2
:101DD40008BD70470F4B1A6842F001021A60596837
:101DE4000D4A0A405A601A6822F0847222F4803242
:101DF4001A601A6822F480221A605A6822F4FE02D9
:101E04005A604FF41F029A60044B4FF000629A60CC
:101E1400704700BF001002400000FFF800ED00E032
:101E2400002103E00B4B5B58435004310A480B4B31
:101E340042189A42F6D30A4A02E0002342F8043BCD
:101E4400084B9A42F9D3FFF7C5FF00F00FF8FFF7EC
:101E540039FD7047441F0008000000200C000020DA
:101E64000C00002040000020FEE7000070B50025B3
:101E74000C4E0D4CA41BA410A54209D100F01AF875
:101E840000250A4E0A4CA41BA410A54205D170BD1E
:101E940056F8253098470135EEE756F8253098472F
:101EA4000135F2E73C1F00083C1F00083C1F0008F6
:101EB400401F0008F8B500BFF8BC08BC9E46704738
:0C1EC400F8B500BFF8BC08BC9E46704793
:101ED00002030405060708090A0B0C0D0E0F10106B
:101EE0000102000002030405060708090A0B0C0D95
:101EF0000E0F1010010200003F065B4F666D7D075C
:101F00007F6F0000000000000000000001020304D9
:101F10000607080900000000010203042E2E2F53BB
:101F200072632F6D61696E2E630000002E2E2F5399
:0C1F300072632F7274632E6300000000C7
:041F3C00090200088E
:041F4000E5010008AF
:0C1F4400010000001000000000A24A0490
:0400000508001E25AC
:00000001FF
