:020000040800F2
:10000000FC4F0020E5030000ED020000ED020000BF
:10001000ED020000ED020000ED020000ED02000024
:10002000ED020000ED020000ED020000ED02000014
:10003000ED020000ED020000ED020000ED02000004
:10004000ED020000ED020000ED020000ED020000F4
:10005000ED020000ED020000ED020000ED020000E4
:10006000ED020000ED020000ED020000ED020000D4
:10007000ED020000ED020000ED020000ED020000C4
:10008000ED020000ED020000ED020000ED020000B4
:10009000ED020000ED020000ED020000ED020000A4
:1000A000ED020000ED020000ED020000ED02000094
:1000B000ED020000ED020000ED020000ED02000084
:1000C000ED020000ED020000ED020000ED02000074
:1000D000ED020000ED020000ED020000ED02000064
:1000E000ED020000ED020000ED020000ED02000054
:1000F000ED020000ED020000ED020000ED02000044
:10010000ED020000ED020000ED020000ED02000033
:10011000ED020000ED020000ED020000ED02000023
:10012000ED020000ED020000ED020000ED02000013
:1001300081B0AFF30080401E401E00BF00BF00BF73
:1001400000BF00BF00BF00BFF6D101B07047FFFF86
:1001500081B01CF8019B0BF8019BBBEB0A0FF8D197
:1001600001B0704781B00F48006840F001010D48B0
:1001700001600D490D4801600A4801680C480140C2
:1001800008480160074801686FF480200140054875
:100190000160064801686FF4FE00014003480160F9
:1001A00001B07047001002400000FFF80410024048
:1001B000FFFFF6FE81B04FF000094FF0000CBDEBE1
:1001C0000A0F04DCBDEB0B0F01DBD446EA464BF80B
:1001D000049BBBEB0A0FFAD1BCEB0A0F05DDE2462C
:1001E000D9F800B00BF1040BF1E701B07047FFFF45
:1001F00001235BB21F4803601F4803604FF0443186
:100200001E4801604FF044311D4801604FF04431F9
:100210001C4801604FF044311B4801604FF04431ED
:100220001A4801604FF04431194801604FF04431E1
:10023000184801604FF04431174801600022174907
:10024000087862F30100087002221449087862F30A
:10025000830008701248036002221249086862F3A2
:100260001D70086000220F49086862F39F700860E3
:10027000704700BF080342420C034242000801409D
:1002800004080140000C0140040C01400010014032
:100290000410014000140140041401400008014012
:1002A00080012142040C014081B0CDF800E04FF400
:1002B000FA5101FB00F20A21B2FBF1F1C91E084616
:1002C000FFF736FF00BF00BF00BF00BF00BF00BF89
:1002D000DDF800E001B0704781B0024902480160DA
:1002E00001B07047401F00000000002081B0FEE711
:1002F00001B0704782B0CDF800E0334A334B344947
:100300004BF68030814206D93248006840F0020145
:100310003048016011E045F6C050814206D92D48B1
:10032000006840F001012B48016006E0294801689F
:100330006FF00700014027480160FFF713FF2648D0
:100340000360264802EA00012548016002F001002E
:1003500040B119462248006800F00200002800D190
:10036000F8E700E0194602F4803048B11C48006804
:1003700000F4003000B9F9E701920A46019902E061
:1003800001911146019A01F0807070B11448006823
:1003900040F080711248016011461148006800F079
:1003A000007000B9F9E70A46FFE70B48006800F063
:1003B0000C01900000F00C00814200D0F5E7DDF860
:1003C00000E002B0704700BF81000100010000069C
:1003D000401F00000020024004100240FFFF0F00F9
:1003E00000100240FFF786FF00F022F8FFF774FFCD
:1003F000FFF7FEFE0B49086808B1C82301E040F290
:100400005823012149B20848016098B2FFF74CFF18
:10041000012149B20548016098B2FFF745FFE9E7BD
:10042000FEE700BF000121423C822142BC82214202
:1004300000B5DFF810B0DFF810A0FFF7BBFE00BD7D
:10044000704700BF0000002004000020FFFFFFFFF6
:00000001FF
