:020000040800F2
:10000000FCFF002071030000750200007502000073
:100010007502000075020000750200007502000004
:1000200075020000750200007502000075020000F4
:1000300075020000750200007502000075020000E4
:1000400075020000750200007502000075020000D4
:1000500075020000750200007502000075020000C4
:1000600075020000750200007502000075020000B4
:1000700075020000750200007502000075020000A4
:100080007502000075020000750200007502000094
:100090007502000075020000750200007502000084
:1000A0007502000075020000750200007502000074
:1000B0007502000075020000750200007502000064
:1000C0007502000075020000750200007502000054
:1000D0007502000075020000750200007502000044
:1000E0007502000075020000750200007502000034
:1000F0007502000075020000750200007502000024
:100100007502000075020000750200007502000013
:100110007502000075020000750200007502000003
:1001200075020000750200007502000075020000F3
:10013000012149B20C4801600C4801686FF470203D
:1001400001400A4801600948016808480160074801
:1001500001686FF4700001400448016003480168C1
:1001600002480160704700BF080342420008014096
:10017000012252B20648026000210648016006488A
:100180000260064802600648026006480260704746
:10019000F40342420074004004800E4244800E4248
:1001A00000800E4240800E4281B00F48006840F04F
:1001B00001010D4801600D490D4801600A480168C0
:1001C0000C48014008480160074801686FF480202E
:1001D000014005480160064801686FF4FE000140D7
:1001E0000348016001B07047001002400000FFF8B2
:1001F00004100240FFFFF6FE81B04FF000094FF0FF
:10020000000CBDEB0A0F04DCBDEB0B0F01DBD44689
:10021000EA464BF8049BBBEB0A0FFAD1BCEB0A0F82
:1002200005DDE246D9F800B00BF1040BF1E701B0AF
:100230007047FFFF81B01CF8019B0BF8019BBBEBE3
:100240000A0FF8D101B0704781B0CDF800E0FFF798
:100250006FFFFFF78DFFDDF800E001B07047FFFF93
:1002600081B002490248016001B0704740190100A5
:100270000000002081B0FEE701B0704782B0CDF8E9
:1002800000E0334A334B34494BF68030814206D983
:100290003248006840F002013048016011E045F644
:1002A000C050814206D92D48006840F001012B481A
:1002B000016006E0294801686FF007000140274807
:1002C0000160FFF771FF26480360264802EA00013B
:1002D0002548016002F0010040B11946224800683B
:1002E00000F00200002800D1F8E700E0194602F40F
:1002F000803048B11C48006800F4003000B9F9E7CC
:1003000001920A46019902E001911146019A01F019
:10031000807070B11448006840F08071124801602C
:1003200011461148006800F0007000B9F9E70A466C
:10033000FFE70B48006800F00C01900000F00C0093
:10034000814200D0F5E7DDF800E002B0704700BF61
:100350008100090102C45D00401901000020024033
:1003600004100240FFFF0F0000100240FFFFFFFFDC
:10037000FFF784FF00F044F8FFF772FFFFF764FF18
:10038000002109B2B1F5805F16DA1B48016000292F
:1003900004DDB1F5807F01DA1848016040F237478B
:1003A000C0F2000700BF00BF7F1EFDD100BF00BF2D
:1003B00000BF491C09B2E5E740F6FF7109B2B1F18F
:1003C000FF3F16DD0C480160002904DDB1F5807F98
:1003D00001DA0A48016040F23747C0F2000700BF67
:1003E00000BF7F1EFDD100BF00BF00BF491E09B284
:1003F000E5E7C5E7FEE700BF087400401C74004055
:1004000000B5DFF810B0DFF810A0FFF7F5FE00BD73
:10041000704700BF0000002004000020FFFFFFFF26
:00000001FF
